{
  "_format": "hh-sol-artifact-1",
  "contractName": "Voting",
  "sourceName": "contracts/Voting.sol",
  "abi": [
    {
      "inputs": [],
      "stateMutability": "nonpayable",
      "type": "constructor"
    },
    {
      "anonymous": false,
      "inputs": [
        {
          "indexed": true,
          "internalType": "uint256",
          "name": "electionId",
          "type": "uint256"
        },
        {
          "indexed": true,
          "internalType": "uint256",
          "name": "candidateId",
          "type": "uint256"
        },
        {
          "indexed": false,
          "internalType": "string",
          "name": "name",
          "type": "string"
        }
      ],
      "name": "CandidateAdded",
      "type": "event"
    },
    {
      "anonymous": false,
      "inputs": [
        {
          "indexed": true,
          "internalType": "uint256",
          "name": "electionId",
          "type": "uint256"
        },
        {
          "indexed": true,
          "internalType": "uint256",
          "name": "candidateId",
          "type": "uint256"
        }
      ],
      "name": "CandidateDeleted",
      "type": "event"
    },
    {
      "anonymous": false,
      "inputs": [
        {
          "indexed": true,
          "internalType": "uint256",
          "name": "electionId",
          "type": "uint256"
        },
        {
          "indexed": false,
          "internalType": "string",
          "name": "name",
          "type": "string"
        },
        {
          "indexed": false,
          "internalType": "address",
          "name": "createdBy",
          "type": "address"
        }
      ],
      "name": "ElectionCreated",
      "type": "event"
    },
    {
      "anonymous": false,
      "inputs": [
        {
          "indexed": true,
          "internalType": "uint256",
          "name": "electionId",
          "type": "uint256"
        }
      ],
      "name": "ElectionDeleted",
      "type": "event"
    },
    {
      "anonymous": false,
      "inputs": [
        {
          "indexed": true,
          "internalType": "uint256",
          "name": "electionId",
          "type": "uint256"
        },
        {
          "indexed": true,
          "internalType": "address",
          "name": "voter",
          "type": "address"
        },
        {
          "indexed": true,
          "internalType": "uint256",
          "name": "candidateId",
          "type": "uint256"
        }
      ],
      "name": "VoteCast",
      "type": "event"
    },
    {
      "anonymous": false,
      "inputs": [
        {
          "indexed": false,
          "internalType": "string",
          "name": "message",
          "type": "string"
        }
      ],
      "name": "VoteError",
      "type": "event"
    },
    {
      "inputs": [
        {
          "internalType": "string",
          "name": "_name",
          "type": "string"
        },
        {
          "internalType": "string[]",
          "name": "_candidates",
          "type": "string[]"
        }
      ],
      "name": "createElection",
      "outputs": [],
      "stateMutability": "nonpayable",
      "type": "function"
    },
    {
      "inputs": [
        {
          "internalType": "uint256",
          "name": "_electionId",
          "type": "uint256"
        },
        {
          "internalType": "uint256",
          "name": "_candidateId",
          "type": "uint256"
        }
      ],
      "name": "deleteCandidate",
      "outputs": [],
      "stateMutability": "nonpayable",
      "type": "function"
    },
    {
      "inputs": [
        {
          "internalType": "uint256",
          "name": "_electionId",
          "type": "uint256"
        }
      ],
      "name": "deleteElection",
      "outputs": [],
      "stateMutability": "nonpayable",
      "type": "function"
    },
    {
      "inputs": [
        {
          "internalType": "uint256",
          "name": "",
          "type": "uint256"
        }
      ],
      "name": "elections",
      "outputs": [
        {
          "internalType": "uint256",
          "name": "id",
          "type": "uint256"
        },
        {
          "internalType": "string",
          "name": "name",
          "type": "string"
        },
        {
          "internalType": "address",
          "name": "createdBy",
          "type": "address"
        },
        {
          "internalType": "bool",
          "name": "isActive",
          "type": "bool"
        },
        {
          "internalType": "uint256",
          "name": "candidatesCount",
          "type": "uint256"
        }
      ],
      "stateMutability": "view",
      "type": "function"
    },
    {
      "inputs": [],
      "name": "electionsCount",
      "outputs": [
        {
          "internalType": "uint256",
          "name": "",
          "type": "uint256"
        }
      ],
      "stateMutability": "view",
      "type": "function"
    },
    {
      "inputs": [
        {
          "internalType": "uint256",
          "name": "_electionId",
          "type": "uint256"
        }
      ],
      "name": "getElection",
      "outputs": [
        {
          "internalType": "uint256",
          "name": "id",
          "type": "uint256"
        },
        {
          "internalType": "string",
          "name": "name",
          "type": "string"
        },
        {
          "internalType": "address",
          "name": "createdBy",
          "type": "address"
        },
        {
          "internalType": "bool",
          "name": "isActive",
          "type": "bool"
        }
      ],
      "stateMutability": "view",
      "type": "function"
    },
    {
      "inputs": [
        {
          "internalType": "uint256",
          "name": "_electionId",
          "type": "uint256"
        },
        {
          "internalType": "uint256",
          "name": "_candidateId",
          "type": "uint256"
        }
      ],
      "name": "getElectionCandidate",
      "outputs": [
        {
          "internalType": "uint256",
          "name": "id",
          "type": "uint256"
        },
        {
          "internalType": "string",
          "name": "name",
          "type": "string"
        },
        {
          "internalType": "uint256",
          "name": "voteCount",
          "type": "uint256"
        }
      ],
      "stateMutability": "view",
      "type": "function"
    },
    {
      "inputs": [
        {
          "internalType": "uint256",
          "name": "_electionId",
          "type": "uint256"
        }
      ],
      "name": "getElectionCandidatesCount",
      "outputs": [
        {
          "internalType": "uint256",
          "name": "",
          "type": "uint256"
        }
      ],
      "stateMutability": "view",
      "type": "function"
    },
    {
      "inputs": [],
      "name": "getElections",
      "outputs": [
        {
          "internalType": "uint256[]",
          "name": "",
          "type": "uint256[]"
        }
      ],
      "stateMutability": "view",
      "type": "function"
    },
    {
      "inputs": [
        {
          "internalType": "uint256",
          "name": "_electionId",
          "type": "uint256"
        },
        {
          "internalType": "address",
          "name": "_voter",
          "type": "address"
        }
      ],
      "name": "hasAddressVotedInElection",
      "outputs": [
        {
          "internalType": "bool",
          "name": "",
          "type": "bool"
        }
      ],
      "stateMutability": "view",
      "type": "function"
    },
    {
      "inputs": [],
      "name": "owner",
      "outputs": [
        {
          "internalType": "address",
          "name": "",
          "type": "address"
        }
      ],
      "stateMutability": "view",
      "type": "function"
    },
    {
      "inputs": [
        {
          "internalType": "uint256",
          "name": "_electionId",
          "type": "uint256"
        },
        {
          "internalType": "uint256",
          "name": "_candidateId",
          "type": "uint256"
        }
      ],
      "name": "vote",
      "outputs": [],
      "stateMutability": "nonpayable",
      "type": "function"
    }
  ],
  "bytecode": "0x608060405234801561001057600080fd5b5033600260006101000a81548173ffffffffffffffffffffffffffffffffffffffff021916908373ffffffffffffffffffffffffffffffffffffffff1602179055506000600181905550612210806100696000396000f3fe608060405234801561001057600080fd5b50600436106100b45760003560e01c80639d710777116100715780639d710777146101915780639f3a7f52146101c4578063b384abef146101e2578063bf183961146101fe578063cf4a60601461022e578063f70171fb1461024a576100b4565b8063349813b2146100b95780635e6fef01146100d55780636dd278a714610109578063740c47d4146101395780638da5cb5b146101555780639a74c69514610173575b600080fd5b6100d360048036038101906100ce91906114f6565b61027c565b005b6100ef60048036038101906100ea91906115a4565b6104e0565b6040516101009594939291906116bb565b60405180910390f35b610123600480360381019061011e91906115a4565b6105cb565b6040516101309190611715565b60405180910390f35b610153600480360381019061014e91906115a4565b61063a565b005b61015d610846565b60405161016a9190611730565b60405180910390f35b61017b61086c565b6040516101889190611715565b60405180910390f35b6101ab60048036038101906101a691906115a4565b610872565b6040516101bb949392919061174b565b60405180910390f35b6101cc6109bc565b6040516101d99190611855565b60405180910390f35b6101fc60048036038101906101f79190611877565b610a91565b005b610218600480360381019061021391906118e3565b610d62565b6040516102259190611923565b60405180910390f35b61024860048036038101906102439190611877565b610e1c565b005b610264600480360381019061025f9190611877565b6110e4565b6040516102739392919061193e565b60405180910390f35b60008251116102c0576040517f08c379a00000000000000000000000000000000000000000000000000000000081526004016102b7906119c8565b60405180910390fd5b600281511015610305576040517f08c379a00000000000000000000000000000000000000000000000000000000081526004016102fc90611a34565b60405180910390fd5b6001600081548092919061031890611a83565b91905055506000806000600154815260200190815260200160002090506001548160000181905550828160010190816103519190611cd7565b50338160020160006101000a81548173ffffffffffffffffffffffffffffffffffffffff021916908373ffffffffffffffffffffffffffffffffffffffff16021790555060018160020160146101000a81548160ff0219169083151502179055506000816004018190555060005b825181101561049e578160040160008154809291906103dd90611a83565b919050555060405180608001604052808360040154815260200184838151811061040a57610409611da9565b5b6020026020010151815260200160008152602001600115158152508260030160008460040154815260200190815260200160002060008201518160000155602082015181600101908161045d9190611cd7565b506040820151816002015560608201518160030160006101000a81548160ff021916908315150217905550905050808061049690611a83565b9150506103bf565b506001547f86a3370600c4089c572e5fa1f974825253da2be6295eb9e0eef3423aebd991b084336040516104d3929190611dd8565b60405180910390a2505050565b600060205280600052604060002060009150905080600001549080600101805461050990611afa565b80601f016020809104026020016040519081016040528092919081815260200182805461053590611afa565b80156105825780601f1061055757610100808354040283529160200191610582565b820191906000526020600020905b81548152906001019060200180831161056557829003601f168201915b5050505050908060020160009054906101000a900473ffffffffffffffffffffffffffffffffffffffff16908060020160149054906101000a900460ff16908060040154905085565b600080821180156105de57506001548211155b61061d576040517f08c379a000000000000000000000000000000000000000000000000000000000815260040161061490611e54565b60405180910390fd5b600080838152602001908152602001600020600401549050919050565b60008111801561064c57506001548111155b61068b576040517f08c379a000000000000000000000000000000000000000000000000000000000815260040161068290611e54565b60405180910390fd5b60008082815260200190815260200160002060020160149054906101000a900460ff166106ed576040517f08c379a00000000000000000000000000000000000000000000000000000000081526004016106e490611ec0565b60405180910390fd5b600260009054906101000a900473ffffffffffffffffffffffffffffffffffffffff1673ffffffffffffffffffffffffffffffffffffffff163373ffffffffffffffffffffffffffffffffffffffff1614806107a957503373ffffffffffffffffffffffffffffffffffffffff1660008083815260200190815260200160002060020160009054906101000a900473ffffffffffffffffffffffffffffffffffffffff1673ffffffffffffffffffffffffffffffffffffffff16145b6107e8576040517f08c379a00000000000000000000000000000000000000000000000000000000081526004016107df90611f52565b60405180910390fd5b600080600083815260200190815260200160002060020160146101000a81548160ff021916908315150217905550807fbb78d5fa658dbdad95908d420646ea8bb64f50a9daa1acaa682effe6703f1ed760405160405180910390a250565b600260009054906101000a900473ffffffffffffffffffffffffffffffffffffffff1681565b60015481565b6000606060008060008511801561088b57506001548511155b6108ca576040517f08c379a00000000000000000000000000000000000000000000000000000000081526004016108c190611e54565b60405180910390fd5b600080600087815260200190815260200160002090508060000154816001018260020160009054906101000a900473ffffffffffffffffffffffffffffffffffffffff168360020160149054906101000a900460ff1682805461092c90611afa565b80601f016020809104026020016040519081016040528092919081815260200182805461095890611afa565b80156109a55780601f1061097a576101008083540402835291602001916109a5565b820191906000526020600020905b81548152906001019060200180831161098857829003601f168201915b505050505092509450945094509450509193509193565b6060600060015467ffffffffffffffff8111156109dc576109db6112e5565b5b604051908082528060200260200182016040528015610a0a5781602001602082028036833780820191505090505b509050600080600190505b6001548111610a885760008082815260200190815260200160002060020160149054906101000a900460ff1615610a755780838381518110610a5a57610a59611da9565b5b6020026020010181815250508180610a7190611a83565b9250505b8080610a8090611a83565b915050610a15565b50819250505090565b600082118015610aa357506001548211155b610ae2576040517f08c379a0000000000000000000000000000000000000000000000000000000008152600401610ad990611e54565b60405180910390fd5b600080600084815260200190815260200160002090508060020160149054906101000a900460ff16610b49576040517f08c379a0000000000000000000000000000000000000000000000000000000008152600401610b4090611fbe565b60405180910390fd5b8060050160003373ffffffffffffffffffffffffffffffffffffffff1673ffffffffffffffffffffffffffffffffffffffff16815260200190815260200160002060009054906101000a900460ff1615610bd8576040517f08c379a0000000000000000000000000000000000000000000000000000000008152600401610bcf90612050565b60405180910390fd5b600082118015610bec575080600401548211155b610c2b576040517f08c379a0000000000000000000000000000000000000000000000000000000008152600401610c22906120bc565b60405180910390fd5b80600301600083815260200190815260200160002060030160009054906101000a900460ff16610c90576040517f08c379a0000000000000000000000000000000000000000000000000000000008152600401610c8790612128565b60405180910390fd5b60018160050160003373ffffffffffffffffffffffffffffffffffffffff1673ffffffffffffffffffffffffffffffffffffffff16815260200190815260200160002060006101000a81548160ff0219169083151502179055508060030160008381526020019081526020016000206002016000815480929190610d1390611a83565b9190505550813373ffffffffffffffffffffffffffffffffffffffff16847f2acce567deca3aabf56327adbb4524bd5318936eaefa69e3a5208ffda0cfec0960405160405180910390a4505050565b60008083118015610d7557506001548311155b610db4576040517f08c379a0000000000000000000000000000000000000000000000000000000008152600401610dab90611e54565b60405180910390fd5b60008084815260200190815260200160002060050160008373ffffffffffffffffffffffffffffffffffffffff1673ffffffffffffffffffffffffffffffffffffffff16815260200190815260200160002060009054906101000a900460ff16905092915050565b600082118015610e2e57506001548211155b610e6d576040517f08c379a0000000000000000000000000000000000000000000000000000000008152600401610e6490611e54565b60405180910390fd5b60008060008481526020019081526020016000209050600082118015610e97575080600401548211155b610ed6576040517f08c379a0000000000000000000000000000000000000000000000000000000008152600401610ecd906120bc565b60405180910390fd5b80600301600083815260200190815260200160002060030160009054906101000a900460ff16610f3b576040517f08c379a0000000000000000000000000000000000000000000000000000000008152600401610f3290612128565b60405180910390fd5b60008160030160008481526020019081526020016000206002015414610f96576040517f08c379a0000000000000000000000000000000000000000000000000000000008152600401610f8d906121ba565b60405180910390fd5b600260009054906101000a900473ffffffffffffffffffffffffffffffffffffffff1673ffffffffffffffffffffffffffffffffffffffff163373ffffffffffffffffffffffffffffffffffffffff16148061104157503373ffffffffffffffffffffffffffffffffffffffff168160020160009054906101000a900473ffffffffffffffffffffffffffffffffffffffff1673ffffffffffffffffffffffffffffffffffffffff16145b611080576040517f08c379a000000000000000000000000000000000000000000000000000000000815260040161107790611f52565b60405180910390fd5b600081600301600084815260200190815260200160002060030160006101000a81548160ff02191690831515021790555081837f48bf3ef4944e20b74a7ae7804d664a8e9ba28141c5fc26163c87f7fbc9e90e2f60405160405180910390a3505050565b60006060600080851180156110fb57506001548511155b61113a576040517f08c379a000000000000000000000000000000000000000000000000000000000815260040161113190611e54565b60405180910390fd5b60008060008781526020019081526020016000209050600085118015611164575080600401548511155b6111a3576040517f08c379a000000000000000000000000000000000000000000000000000000000815260040161119a906120bc565b60405180910390fd5b600081600301600087815260200190815260200160002090508060030160009054906101000a900460ff1661120d576040517f08c379a000000000000000000000000000000000000000000000000000000000815260040161120490612128565b60405180910390fd5b806000015481600101826002015481805461122790611afa565b80601f016020809104026020016040519081016040528092919081815260200182805461125390611afa565b80156112a05780601f10611275576101008083540402835291602001916112a0565b820191906000526020600020905b81548152906001019060200180831161128357829003601f168201915b5050505050915094509450945050509250925092565b6000604051905090565b600080fd5b600080fd5b600080fd5b600080fd5b6000601f19601f8301169050919050565b7f4e487b7100000000000000000000000000000000000000000000000000000000600052604160045260246000fd5b61131d826112d4565b810181811067ffffffffffffffff8211171561133c5761133b6112e5565b5b80604052505050565b600061134f6112b6565b905061135b8282611314565b919050565b600067ffffffffffffffff82111561137b5761137a6112e5565b5b611384826112d4565b9050602081019050919050565b82818337600083830152505050565b60006113b36113ae84611360565b611345565b9050828152602081018484840111156113cf576113ce6112cf565b5b6113da848285611391565b509392505050565b600082601f8301126113f7576113f66112ca565b5b81356114078482602086016113a0565b91505092915050565b600067ffffffffffffffff82111561142b5761142a6112e5565b5b602082029050602081019050919050565b600080fd5b600061145461144f84611410565b611345565b905080838252602082019050602084028301858111156114775761147661143c565b5b835b818110156114be57803567ffffffffffffffff81111561149c5761149b6112ca565b5b8086016114a989826113e2565b85526020850194505050602081019050611479565b5050509392505050565b600082601f8301126114dd576114dc6112ca565b5b81356114ed848260208601611441565b91505092915050565b6000806040838503121561150d5761150c6112c0565b5b600083013567ffffffffffffffff81111561152b5761152a6112c5565b5b611537858286016113e2565b925050602083013567ffffffffffffffff811115611558576115576112c5565b5b611564858286016114c8565b9150509250929050565b6000819050919050565b6115818161156e565b811461158c57600080fd5b50565b60008135905061159e81611578565b92915050565b6000602082840312156115ba576115b96112c0565b5b60006115c88482850161158f565b91505092915050565b6115da8161156e565b82525050565b600081519050919050565b600082825260208201905092915050565b60005b8381101561161a5780820151818401526020810190506115ff565b60008484015250505050565b6000611631826115e0565b61163b81856115eb565b935061164b8185602086016115fc565b611654816112d4565b840191505092915050565b600073ffffffffffffffffffffffffffffffffffffffff82169050919050565b600061168a8261165f565b9050919050565b61169a8161167f565b82525050565b60008115159050919050565b6116b5816116a0565b82525050565b600060a0820190506116d060008301886115d1565b81810360208301526116e28187611626565b90506116f16040830186611691565b6116fe60608301856116ac565b61170b60808301846115d1565b9695505050505050565b600060208201905061172a60008301846115d1565b92915050565b60006020820190506117456000830184611691565b92915050565b600060808201905061176060008301876115d1565b81810360208301526117728186611626565b90506117816040830185611691565b61178e60608301846116ac565b95945050505050565b600081519050919050565b600082825260208201905092915050565b6000819050602082019050919050565b6117cc8161156e565b82525050565b60006117de83836117c3565b60208301905092915050565b6000602082019050919050565b600061180282611797565b61180c81856117a2565b9350611817836117b3565b8060005b8381101561184857815161182f88826117d2565b975061183a836117ea565b92505060018101905061181b565b5085935050505092915050565b6000602082019050818103600083015261186f81846117f7565b905092915050565b6000806040838503121561188e5761188d6112c0565b5b600061189c8582860161158f565b92505060206118ad8582860161158f565b9150509250929050565b6118c08161167f565b81146118cb57600080fd5b50565b6000813590506118dd816118b7565b92915050565b600080604083850312156118fa576118f96112c0565b5b60006119088582860161158f565b9250506020611919858286016118ce565b9150509250929050565b600060208201905061193860008301846116ac565b92915050565b600060608201905061195360008301866115d1565b81810360208301526119658185611626565b905061197460408301846115d1565b949350505050565b7f456c656374696f6e206e616d652063616e6e6f7420626520656d707479000000600082015250565b60006119b2601d836115eb565b91506119bd8261197c565b602082019050919050565b600060208201905081810360008301526119e1816119a5565b9050919050565b7f4d696e696d756d20322063616e64696461746573207265717569726564000000600082015250565b6000611a1e601d836115eb565b9150611a29826119e8565b602082019050919050565b60006020820190508181036000830152611a4d81611a11565b9050919050565b7f4e487b7100000000000000000000000000000000000000000000000000000000600052601160045260246000fd5b6000611a8e8261156e565b91507fffffffffffffffffffffffffffffffffffffffffffffffffffffffffffffffff8203611ac057611abf611a54565b5b600182019050919050565b7f4e487b7100000000000000000000000000000000000000000000000000000000600052602260045260246000fd5b60006002820490506001821680611b1257607f821691505b602082108103611b2557611b24611acb565b5b50919050565b60008190508160005260206000209050919050565b60006020601f8301049050919050565b600082821b905092915050565b600060088302611b8d7fffffffffffffffffffffffffffffffffffffffffffffffffffffffffffffffff82611b50565b611b978683611b50565b95508019841693508086168417925050509392505050565b6000819050919050565b6000611bd4611bcf611bca8461156e565b611baf565b61156e565b9050919050565b6000819050919050565b611bee83611bb9565b611c02611bfa82611bdb565b848454611b5d565b825550505050565b600090565b611c17611c0a565b611c22818484611be5565b505050565b5b81811015611c4657611c3b600082611c0f565b600181019050611c28565b5050565b601f821115611c8b57611c5c81611b2b565b611c6584611b40565b81016020851015611c74578190505b611c88611c8085611b40565b830182611c27565b50505b505050565b600082821c905092915050565b6000611cae60001984600802611c90565b1980831691505092915050565b6000611cc78383611c9d565b9150826002028217905092915050565b611ce0826115e0565b67ffffffffffffffff811115611cf957611cf86112e5565b5b611d038254611afa565b611d0e828285611c4a565b600060209050601f831160018114611d415760008415611d2f578287015190505b611d398582611cbb565b865550611da1565b601f198416611d4f86611b2b565b60005b82811015611d7757848901518255600182019150602085019450602081019050611d52565b86831015611d945784890151611d90601f891682611c9d565b8355505b6001600288020188555050505b505050505050565b7f4e487b7100000000000000000000000000000000000000000000000000000000600052603260045260246000fd5b60006040820190508181036000830152611df28185611626565b9050611e016020830184611691565b9392505050565b7f496e76616c696420656c656374696f6e20494400000000000000000000000000600082015250565b6000611e3e6013836115eb565b9150611e4982611e08565b602082019050919050565b60006020820190508181036000830152611e6d81611e31565b9050919050565b7f456c656374696f6e20616c72656164792064656c657465640000000000000000600082015250565b6000611eaa6018836115eb565b9150611eb582611e74565b602082019050919050565b60006020820190508181036000830152611ed981611e9d565b9050919050565b7f4f6e6c792061646d696e206f7220656c656374696f6e2063726561746f72206360008201527f616e2064656c6574650000000000000000000000000000000000000000000000602082015250565b6000611f3c6029836115eb565b9150611f4782611ee0565b604082019050919050565b60006020820190508181036000830152611f6b81611f2f565b9050919050565b7f456c656374696f6e206973206e6f742061637469766500000000000000000000600082015250565b6000611fa86016836115eb565b9150611fb382611f72565b602082019050919050565b60006020820190508181036000830152611fd781611f9b565b9050919050565b7f596f75206861766520616c726561647920766f74656420696e2074686973206560008201527f6c656374696f6e00000000000000000000000000000000000000000000000000602082015250565b600061203a6027836115eb565b915061204582611fde565b604082019050919050565b600060208201905081810360008301526120698161202d565b9050919050565b7f496e76616c69642063616e646964617465204944000000000000000000000000600082015250565b60006120a66014836115eb565b91506120b182612070565b602082019050919050565b600060208201905081810360008301526120d581612099565b9050919050565b7f43616e64696461746520646f6573206e6f742065786973740000000000000000600082015250565b60006121126018836115eb565b915061211d826120dc565b602082019050919050565b6000602082019050818103600083015261214181612105565b9050919050565b7f43616e6e6f742064656c6574652063616e646964617465207769746820766f7460008201527f6573000000000000000000000000000000000000000000000000000000000000602082015250565b60006121a46022836115eb565b91506121af82612148565b604082019050919050565b600060208201905081810360008301526121d381612197565b905091905056fea2646970667358221220fe239931da120234a4da60a008e975420cd0d91c6bbffc18ea0398557f2115cf64736f6c63430008120033",
  "linkReferences": {},
  "deployedLinkReferences": {}
}